:100000000C9454000C9473000C9473000C947300C3
:100010000C9473000C9473000C9473000C94730094
:100020000C9473000C9473000C9473000C94730084
:100030000C9473000C9473000C9473000C94730074
:100040000C9473000C9473000C9473000C94730064
:100050000C9473000C9473000C9473000C94730054
:100060000C9473000C9473000C9473000C94730044
:100070000C9473000C9473000C9473000C94730034
:100080000C9473000C9473000C947300EF00F70051
:10009000420189011E016601AB01EE01EE01EE0194
:1000A000EE01D701E101EB0111241FBECFEFD0E437
:1000B000DEBFCDBF11E0A0E0B1E0EAE1F4E000E096
:1000C0000BBF02C007900D92AE30B107D9F721E007
:1000D000AEE0B1E001C01D92AF30B207E1F70E947F
:1000E0009E000C940B020C940000CF93DF9300D081
:1000F0001F92CDB7DEB789837B836A8389818A307B
:1001000031F48A819B81BC018DE00E94750080ECF6
:1001100090E0FC018081882F90E080729927892BE4
:10012000B1F386EC90E02981FC01208380E090E02F
:100130000F900F900F90DF91CF910895CF93DF93A1
:1001400000D0CDB7DEB781E290E0FC01108282E200
:1001500090E02FEFFC01208387E290E02FEFFC017D
:10016000208388E290E0FC0110821A821982898142
:100170009A810E94BE009A838983F9CFCF93DF933F
:1001800000D000D0CDB7DEB79C838B8380E290E0B7
:10019000FC018081882F90E08170992721E0892BD4
:1001A00009F020E0298380E290E0FC0180818095C5
:1001B00082708A838B819C81092E000CAA0BBB0B59
:1001C00040E050E026E030E0841B950B281739070B
:1001D00008F4CFC08A5B9F4FFC010C94020281E0BF
:1001E00090E09C838B8387E080930E01CCC0898153
:1001F000882341F08A81882329F484E090E09C835D
:100200008B831BC08981882341F48A81882329F04C
:1002100085E090E09C838B8310C08981882341F026
:100220008A81882329F086E090E09C838B8305C037
:1002300081E090E09C838B83A6C0A5C08981882340
:1002400041F08A81882329F482E090E09C838B83AB
:1002500018C08981882341F08A81882329F086E0AB
:1002600090E09C838B830DC08981882309F084C032
:100270008A81882309F080C081E090E09C838B8391
:100280007BC07AC08981882341F48A81882329F43C
:1002900081E090E09C838B8318C08981882341F0A2
:1002A0008A81882329F482E090E09C838B830DC0AF
:1002B0008981882309F462C08A81882309F45EC099
:1002C00086E090E09C838B8359C058C08981882345
:1002D00041F48A81882329F083E090E09C838B831A
:1002E00017C08981882341F08A81882329F086E01C
:1002F00090E09C838B830CC08981882309F040C0E7
:100300008A818823E9F581E090E09C838B8338C063
:1003100037C08981882341F48A81882329F481E0C8
:1003200090E09C838B8316C08981882341F08A8169
:10033000882329F086E090E09C838B830BC0898121
:10034000882301F58A818823E9F083E090E09C838B
:100350008B8318C017C08981882319F48A81882368
:1003600019F086E090E002C081E090E09C838B83EE
:100370000AC01C821B8207C0000005C0000003C029
:10038000000001C000008B819C81092E000CAA0B8B
:10039000BB0B40E050E026E030E0841B950B2817B3
:1003A000390708F1835B9F4FFC010C940202809196
:1003B0000E018930A8F480910E018F5F80930E01A9
:1003C0000FC080910E01882369F080910E01815049
:1003D00080930E0107C010920E0105C0000003C0FB
:1003E000000001C0000088E290E020910E01FC01B5
:1003F00020838B819C810F900F900F900F90DF9145
:10040000CF910895EE0FFF1F0024001C0BBE079034
:0A041000F691E02D0994F894FFCF57
:0E041A0000000002000000007500000000005D
:00000001FF
