:100000000C9446000C9465000C9465000C946500FB
:100010000C9465000C9465000C9465000C946500CC
:100020000C9465000C9465000C9465000C946500BC
:100030000C9465000C9465000C9465000C946500AC
:100040000C9465000C9465000C9465000C9465009C
:100050000C9465000C9465000C9465000C9465008C
:100060000C9465000C9465000C9465000C9465007C
:100070000C9465000C9465000C9465000C9465006C
:100080000C9465000C9465000C94650011241FBE4F
:10009000CFEFD0E4DEBFCDBF11E0A0E0B1E0E6EDF0
:1000A000F1E000E00BBF02C007900D92AE30B10747
:1000B000D9F721E0AEE0B1E001C01D92A231B20754
:1000C000E1F70E94DF000C94E9000C940000CF934C
:1000D000C82F8A3019F48DE00E9467008091C0001B
:1000E00085FFFCCFC093C60080E090E0CF910895DB
:1000F00020B1217081309105A9F01CF4892B59F0B1
:1001000019C08230910521F08330910581F012C031
:1001100083E090E014C0109211011092100181E070
:1001200090E00DC0222359F082E090E008C0211138
:1001300006C003C080E090E002C081E090E0813022
:10014000910521F08230910541F035C020910F01D9
:10015000211131C0109211012EC020910E012230C8
:1001600039F4209111012F5F2093110110920E019B
:1001700020911001222361F048E250E0009011012B
:1001800002C0559547950A94E2F740930F010BC0C2
:1001900045E050E00090110102C0440F551F0A9441
:1001A000E2F740930F0120952093100120910E015A
:1001B0002F5F20930E0120910F0125B9089511B8EA
:1001C0008FEF82B984B915B880E090E00E94780082
:0601D000FDCFF894FFCF03
:0E01D6000000000200000000670000000000B2
:00000001FF
