:100000000C9446000C9465000C9465000C946500FB
:100010000C9465000C9465000C9465000C946500CC
:100020000C9465000C9465000C9465000C946500BC
:100030000C9465000C9465000C9465000C946500AC
:100040000C9465000C9465000C9465000C9465009C
:100050000C9465000C9465000C9465000C9465008C
:100060000C9465000C9465000C9465000C9465007C
:100070000C9465000C9465000C9465000C9465006C
:100080000C9465000C9465000C94650011241FBE4F
:10009000CFEFD0E4DEBFCDBF11E0A0E0B1E0EEEFE6
:1000A000F1E000E00BBF02C007900D92AE30B10747
:1000B000D9F721E0AEE0B1E001C01D92A231B20754
:1000C000E1F70E94F3000C94FD000C940000CF9324
:1000D000C82F8A3019F48DE00E9467008091C0001B
:1000E00085FFFCCFC093C60080E090E0CF910895DB
:1000F00020B1217081309105C9F01CF4892B59F091
:100100001DC08230910521F083309105A1F016C009
:1001100083E090E018C0109211011092100110922B
:100120000F0110920E0181E090E00DC021110BC073
:1001300082E090E008C0222331F003C080E090E02C
:1001400002C081E090E08130910521F0823091057C
:1001500061F045C020910E01211141C010921101A2
:1001600010920F01109210013AC020910F0122301D
:1001700039F4209111012F5F2093110110920F018A
:1001800020911001222361F048E250E0009011011B
:1001900002C0559547950A94E2F740930E010BC0B3
:1001A00045E050E00090110102C0440F551F0A9431
:1001B000E2F740930E01211104C021E020931001C9
:1001C00002C01092100120910F012F5F20930F01A8
:1001D00020910E01203118F02F7320930E012091F1
:1001E0000E0128B9089511B88FEF82B987B918B8F0
:0E01F00080E090E00E947800FDCFF894FFCFF1
:0E01FE0000000002000000006700000000008A
:00000001FF
