:100000000C9446000C9465000C9465000C946500FB
:100010000C9465000C9465000C9465000C946500CC
:100020000C9465000C9465000C9465000C946500BC
:100030000C9465000C9465000C9465000C946500AC
:100040000C9465000C9465000C9465000C9465009C
:100050000C9465000C9465000C9465000C9465008C
:100060000C9465000C9465000C9465000C9465007C
:100070000C9465000C9465000C9465000C9465006C
:100080000C9465000C9465000C94650011241FBE4F
:10009000CFEFD0E4DEBFCDBF11E0A0E0B1E0EEEEE7
:1000A000F2E000E00BBF02C007900D92AE30B10746
:1000B000D9F721E0AEE0B1E001C01D92A231B20754
:1000C000E1F70E9490000C9475010C940000CF930E
:1000D000DF9300D01F92CDB7DEB789837B836A831D
:1000E00089818A3031F48A819B81BC018DE00E9434
:1000F000670080EC90E0FC018081882F90E08072A6
:100100009927892BB1F386EC90E02981FC012083AB
:1001100080E090E00F900F900F90DF91CF910895C5
:10012000CF93DF9300D0CDB7DEB781E290E0FC0142
:10013000108282E290E02FEFFC01208387E290E0C2
:100140002FEFFC01208388E290E0FC0110821A82EC
:10015000198289819A810E94B0009A838983F9CF9C
:10016000CF93DF9300D01F92CDB7DEB79B838A83F6
:1001700080E290E0FC018081882F90E081709927D7
:1001800021E0892B09F020E029838A819B8181303D
:100190009105C9F0823091051CF4892B39F02EC0ED
:1001A00082309105D9F0039721F128C081E090E0D9
:1001B0009B838A8310920E0110920F0110921001FE
:1001C000109211011EC08981882319F083E090E00C
:1001D00002C081E090E09B838A8313C089818823D9
:1001E00019F082E090E002C081E090E09B838A8376
:1001F00008C082E090E09B838A8303C01B821A823E
:1002000000008A819B818130910559F082309105EF
:100210000CF456C08230910509F454C0039769F07C
:1002200056C080911101882309F04EC010920E0132
:100230001092100110920F0147C08091100182307E
:1002400039F480910E018F5F80930E01109210019E
:1002500080910F01882371F080910E01282F30E0EA
:1002600088E290E002C0959587952A95E2F7809301
:1002700011010DC080910E01282F30E085E090E043
:1002800002C0880F991F2A95E2F78093110180918F
:100290000F01882321F481E080930F0102C01092A6
:1002A0000F01809110018F5F8093100180911101E7
:1002B000803160F0809111018F738093110106C02D
:1002C000000005C0000003C0000001C0000088E27B
:1002D00090E020911101FC0120838A819B810F9085
:0E02E0000F900F90DF91CF910895F894FFCF0B
:0E02EE00000000020000000067000000000099
:00000001FF
